{
  "_format": "hh-sol-artifact-1",
  "contractName": "PoemChain",
  "sourceName": "contracts/PoemChain.sol",
  "abi": [
    {
      "anonymous": false,
      "inputs": [
        {
          "indexed": true,
          "internalType": "address",
          "name": "author",
          "type": "address"
        },
        {
          "indexed": false,
          "internalType": "string",
          "name": "title",
          "type": "string"
        },
        {
          "indexed": false,
          "internalType": "string",
          "name": "content",
          "type": "string"
        }
      ],
      "name": "NewPoem",
      "type": "event"
    },
    {
      "inputs": [],
      "name": "getAllPoems",
      "outputs": [
        {
          "internalType": "address[]",
          "name": "authors",
          "type": "address[]"
        },
        {
          "internalType": "string[]",
          "name": "titles",
          "type": "string[]"
        },
        {
          "internalType": "string[]",
          "name": "contents",
          "type": "string[]"
        },
        {
          "internalType": "uint256[]",
          "name": "timestamps",
          "type": "uint256[]"
        }
      ],
      "stateMutability": "view",
      "type": "function"
    },
    {
      "inputs": [
        {
          "internalType": "string",
          "name": "_title",
          "type": "string"
        },
        {
          "internalType": "string",
          "name": "_content",
          "type": "string"
        }
      ],
      "name": "writePoem",
      "outputs": [],
      "stateMutability": "nonpayable",
      "type": "function"
    }
  ],
  "bytecode": "0x608060405234801561001057600080fd5b50610e91806100206000396000f3fe608060405234801561001057600080fd5b50600436106100365760003560e01c80632d361ef21461003b57806370867ec91461005c575b600080fd5b610043610078565b6040516100539493929190610834565b60405180910390f35b610076600480360381019061007191906109de565b6103f5565b005b6060806060806000808054905090508067ffffffffffffffff8111156100a1576100a06108b3565b5b6040519080825280602002602001820160405280156100cf5781602001602082028036833780820191505090505b5094508067ffffffffffffffff8111156100ec576100eb6108b3565b5b60405190808252806020026020018201604052801561011f57816020015b606081526020019060019003908161010a5790505b5093508067ffffffffffffffff81111561013c5761013b6108b3565b5b60405190808252806020026020018201604052801561016f57816020015b606081526020019060019003908161015a5790505b5092508067ffffffffffffffff81111561018c5761018b6108b3565b5b6040519080825280602002602001820160405280156101ba5781602001602082028036833780820191505090505b50915060005b818110156103ed5760008082815481106101dd576101dc610a56565b5b906000526020600020906004020190508060000160009054906101000a900473ffffffffffffffffffffffffffffffffffffffff1687838151811061022557610224610a56565b5b602002602001019073ffffffffffffffffffffffffffffffffffffffff16908173ffffffffffffffffffffffffffffffffffffffff168152505080600101805461026e90610ab4565b80601f016020809104026020016040519081016040528092919081815260200182805461029a90610ab4565b80156102e75780601f106102bc576101008083540402835291602001916102e7565b820191906000526020600020905b8154815290600101906020018083116102ca57829003601f168201915b50505050508683815181106102ff576102fe610a56565b5b602002602001018190525080600201805461031990610ab4565b80601f016020809104026020016040519081016040528092919081815260200182805461034590610ab4565b80156103925780601f1061036757610100808354040283529160200191610392565b820191906000526020600020905b81548152906001019060200180831161037557829003601f168201915b50505050508583815181106103aa576103a9610a56565b5b602002602001018190525080600301548483815181106103cd576103cc610a56565b5b6020026020010181815250505080806103e590610b14565b9150506101c0565b505090919293565b600060405180608001604052803373ffffffffffffffffffffffffffffffffffffffff16815260200184815260200183815260200142815250908060018154018082558091505060019003906000526020600020906004020160009091909190915060008201518160000160006101000a81548173ffffffffffffffffffffffffffffffffffffffff021916908373ffffffffffffffffffffffffffffffffffffffff16021790555060208201518160010190816104b39190610d08565b5060408201518160020190816104c99190610d08565b506060820151816003015550503373ffffffffffffffffffffffffffffffffffffffff167f7f4fe00fe19d35d17eb3132609c88f21295c767bd2ec9058d02f0839df56758a838360405161051e929190610e24565b60405180910390a25050565b600081519050919050565b600082825260208201905092915050565b6000819050602082019050919050565b600073ffffffffffffffffffffffffffffffffffffffff82169050919050565b600061058182610556565b9050919050565b61059181610576565b82525050565b60006105a38383610588565b60208301905092915050565b6000602082019050919050565b60006105c78261052a565b6105d18185610535565b93506105dc83610546565b8060005b8381101561060d5781516105f48882610597565b97506105ff836105af565b9250506001810190506105e0565b5085935050505092915050565b600081519050919050565b600082825260208201905092915050565b6000819050602082019050919050565b600081519050919050565b600082825260208201905092915050565b60005b83811015610680578082015181840152602081019050610665565b60008484015250505050565b6000601f19601f8301169050919050565b60006106a882610646565b6106b28185610651565b93506106c2818560208601610662565b6106cb8161068c565b840191505092915050565b60006106e2838361069d565b905092915050565b6000602082019050919050565b60006107028261061a565b61070c8185610625565b93508360208202850161071e85610636565b8060005b8581101561075a578484038952815161073b85826106d6565b9450610746836106ea565b925060208a01995050600181019050610722565b50829750879550505050505092915050565b600081519050919050565b600082825260208201905092915050565b6000819050602082019050919050565b6000819050919050565b6107ab81610798565b82525050565b60006107bd83836107a2565b60208301905092915050565b6000602082019050919050565b60006107e18261076c565b6107eb8185610777565b93506107f683610788565b8060005b8381101561082757815161080e88826107b1565b9750610819836107c9565b9250506001810190506107fa565b5085935050505092915050565b6000608082019050818103600083015261084e81876105bc565b9050818103602083015261086281866106f7565b9050818103604083015261087681856106f7565b9050818103606083015261088a81846107d6565b905095945050505050565b6000604051905090565b600080fd5b600080fd5b600080fd5b600080fd5b7f4e487b7100000000000000000000000000000000000000000000000000000000600052604160045260246000fd5b6108eb8261068c565b810181811067ffffffffffffffff8211171561090a576109096108b3565b5b80604052505050565b600061091d610895565b905061092982826108e2565b919050565b600067ffffffffffffffff821115610949576109486108b3565b5b6109528261068c565b9050602081019050919050565b82818337600083830152505050565b600061098161097c8461092e565b610913565b90508281526020810184848401111561099d5761099c6108ae565b5b6109a884828561095f565b509392505050565b600082601f8301126109c5576109c46108a9565b5b81356109d584826020860161096e565b91505092915050565b600080604083850312156109f5576109f461089f565b5b600083013567ffffffffffffffff811115610a1357610a126108a4565b5b610a1f858286016109b0565b925050602083013567ffffffffffffffff811115610a4057610a3f6108a4565b5b610a4c858286016109b0565b9150509250929050565b7f4e487b7100000000000000000000000000000000000000000000000000000000600052603260045260246000fd5b7f4e487b7100000000000000000000000000000000000000000000000000000000600052602260045260246000fd5b60006002820490506001821680610acc57607f821691505b602082108103610adf57610ade610a85565b5b50919050565b7f4e487b7100000000000000000000000000000000000000000000000000000000600052601160045260246000fd5b6000610b1f82610798565b91507fffffffffffffffffffffffffffffffffffffffffffffffffffffffffffffffff8203610b5157610b50610ae5565b5b600182019050919050565b60008190508160005260206000209050919050565b60006020601f8301049050919050565b600082821b905092915050565b600060088302610bbe7fffffffffffffffffffffffffffffffffffffffffffffffffffffffffffffffff82610b81565b610bc88683610b81565b95508019841693508086168417925050509392505050565b6000819050919050565b6000610c05610c00610bfb84610798565b610be0565b610798565b9050919050565b6000819050919050565b610c1f83610bea565b610c33610c2b82610c0c565b848454610b8e565b825550505050565b600090565b610c48610c3b565b610c53818484610c16565b505050565b5b81811015610c7757610c6c600082610c40565b600181019050610c59565b5050565b601f821115610cbc57610c8d81610b5c565b610c9684610b71565b81016020851015610ca5578190505b610cb9610cb185610b71565b830182610c58565b50505b505050565b600082821c905092915050565b6000610cdf60001984600802610cc1565b1980831691505092915050565b6000610cf88383610cce565b9150826002028217905092915050565b610d1182610646565b67ffffffffffffffff811115610d2a57610d296108b3565b5b610d348254610ab4565b610d3f828285610c7b565b600060209050601f831160018114610d725760008415610d60578287015190505b610d6a8582610cec565b865550610dd2565b601f198416610d8086610b5c565b60005b82811015610da857848901518255600182019150602085019450602081019050610d83565b86831015610dc55784890151610dc1601f891682610cce565b8355505b6001600288020188555050505b505050505050565b600082825260208201905092915050565b6000610df682610646565b610e008185610dda565b9350610e10818560208601610662565b610e198161068c565b840191505092915050565b60006040820190508181036000830152610e3e8185610deb565b90508181036020830152610e528184610deb565b9050939250505056fea26469706673582212206f494d4e33dfd9a858291ce0ee1da57a0bc1ab07dd5dd1fa0ceed6f54fce26eb64736f6c63430008140033",
  "linkReferences": {},
  "deployedLinkReferences": {}
}