{
  "_format": "hh-sol-artifact-1",
  "contractName": "PoemChain",
  "sourceName": "contracts/PoemChain.sol",
  "abi": [
    {
      "anonymous": false,
      "inputs": [
        {
          "indexed": true,
          "internalType": "uint256",
          "name": "poemId",
          "type": "uint256"
        },
        {
          "indexed": false,
          "internalType": "address",
          "name": "author",
          "type": "address"
        },
        {
          "indexed": false,
          "internalType": "string",
          "name": "title",
          "type": "string"
        },
        {
          "indexed": false,
          "internalType": "bool",
          "name": "isPublic",
          "type": "bool"
        }
      ],
      "name": "PoemCreated",
      "type": "event"
    },
    {
      "inputs": [
        {
          "internalType": "string",
          "name": "_title",
          "type": "string"
        },
        {
          "internalType": "string",
          "name": "_content",
          "type": "string"
        },
        {
          "internalType": "bool",
          "name": "_isPublic",
          "type": "bool"
        }
      ],
      "name": "createPoem",
      "outputs": [],
      "stateMutability": "nonpayable",
      "type": "function"
    },
    {
      "inputs": [],
      "name": "getMyPoems",
      "outputs": [
        {
          "internalType": "string[]",
          "name": "titles",
          "type": "string[]"
        },
        {
          "internalType": "string[]",
          "name": "contents",
          "type": "string[]"
        },
        {
          "internalType": "uint256[]",
          "name": "timestamps",
          "type": "uint256[]"
        },
        {
          "internalType": "uint256[]",
          "name": "ids",
          "type": "uint256[]"
        },
        {
          "internalType": "bool[]",
          "name": "isPublicList",
          "type": "bool[]"
        }
      ],
      "stateMutability": "view",
      "type": "function"
    },
    {
      "inputs": [],
      "name": "getPublicPoems",
      "outputs": [
        {
          "internalType": "address[]",
          "name": "authors",
          "type": "address[]"
        },
        {
          "internalType": "string[]",
          "name": "titles",
          "type": "string[]"
        },
        {
          "internalType": "string[]",
          "name": "contents",
          "type": "string[]"
        },
        {
          "internalType": "uint256[]",
          "name": "timestamps",
          "type": "uint256[]"
        },
        {
          "internalType": "uint256[]",
          "name": "ids",
          "type": "uint256[]"
        }
      ],
      "stateMutability": "view",
      "type": "function"
    },
    {
      "inputs": [
        {
          "internalType": "uint256",
          "name": "_poemId",
          "type": "uint256"
        }
      ],
      "name": "togglePoemVisibility",
      "outputs": [],
      "stateMutability": "nonpayable",
      "type": "function"
    }
  ],
  "bytecode": "0x608060405234801561001057600080fd5b50611a4d806100206000396000f3fe608060405234801561001057600080fd5b506004361061004c5760003560e01c806364cdc911146100515780639a603cf31461006d578063f7864bad1461008f578063fe4e2ef6146100b1575b600080fd5b61006b60048036038101906100669190610d6e565b6100cd565b005b610075610214565b604051610086959493929190611075565b60405180910390f35b610097610663565b6040516100a89594939291906111db565b60405180910390f35b6100cb60048036038101906100c691906113b2565b610ad4565b005b6000811180156100df57506001548111155b61011e576040517f08c379a00000000000000000000000000000000000000000000000000000000081526004016101159061149a565b60405180910390fd5b3373ffffffffffffffffffffffffffffffffffffffff1660008083815260200190815260200160002060010160009054906101000a900473ffffffffffffffffffffffffffffffffffffffff1673ffffffffffffffffffffffffffffffffffffffff16146101c1576040517f08c379a00000000000000000000000000000000000000000000000000000000081526004016101b890611506565b60405180910390fd5b60008082815260200190815260200160002060050160009054906101000a900460ff161560008083815260200190815260200160002060050160006101000a81548160ff02191690831515021790555050565b60608060608060606000600260003373ffffffffffffffffffffffffffffffffffffffff1673ffffffffffffffffffffffffffffffffffffffff1681526020019081526020016000208054806020026020016040519081016040528092919081815260200182805480156102a757602002820191906000526020600020905b815481526020019060010190808311610293575b505050505090506000815190508067ffffffffffffffff8111156102ce576102cd61125b565b5b60405190808252806020026020018201604052801561030157816020015b60608152602001906001900390816102ec5790505b5096508067ffffffffffffffff81111561031e5761031d61125b565b5b60405190808252806020026020018201604052801561035157816020015b606081526020019060019003908161033c5790505b5095508067ffffffffffffffff81111561036e5761036d61125b565b5b60405190808252806020026020018201604052801561039c5781602001602082028036833780820191505090505b5094508067ffffffffffffffff8111156103b9576103b861125b565b5b6040519080825280602002602001820160405280156103e75781602001602082028036833780820191505090505b5093508067ffffffffffffffff8111156104045761040361125b565b5b6040519080825280602002602001820160405280156104325781602001602082028036833780820191505090505b50925060005b8181101561065957600080600085848151811061045857610457611526565b5b60200260200101518152602001908152602001600020905080600201805461047f90611584565b80601f01602080910402602001604051908101604052809291908181526020018280546104ab90611584565b80156104f85780601f106104cd576101008083540402835291602001916104f8565b820191906000526020600020905b8154815290600101906020018083116104db57829003601f168201915b50505050508983815181106105105761050f611526565b5b602002602001018190525080600301805461052a90611584565b80601f016020809104026020016040519081016040528092919081815260200182805461055690611584565b80156105a35780601f10610578576101008083540402835291602001916105a3565b820191906000526020600020905b81548152906001019060200180831161058657829003601f168201915b50505050508883815181106105bb576105ba611526565b5b602002602001018190525080600401548783815181106105de576105dd611526565b5b602002602001018181525050806000015486838151811061060257610601611526565b5b6020026020010181815250508060050160009054906101000a900460ff1685838151811061063357610632611526565b5b602002602001019015159081151581525050508080610651906115e4565b915050610438565b5050509091929394565b6060806060806060600080600190505b60015481116106c65760008082815260200190815260200160002060050160009054906101000a900460ff16156106b35781806106af906115e4565b9250505b80806106be906115e4565b915050610673565b508067ffffffffffffffff8111156106e1576106e061125b565b5b60405190808252806020026020018201604052801561070f5781602001602082028036833780820191505090505b5095508067ffffffffffffffff81111561072c5761072b61125b565b5b60405190808252806020026020018201604052801561075f57816020015b606081526020019060019003908161074a5790505b5094508067ffffffffffffffff81111561077c5761077b61125b565b5b6040519080825280602002602001820160405280156107af57816020015b606081526020019060019003908161079a5790505b5093508067ffffffffffffffff8111156107cc576107cb61125b565b5b6040519080825280602002602001820160405280156107fa5781602001602082028036833780820191505090505b5092508067ffffffffffffffff8111156108175761081661125b565b5b6040519080825280602002602001820160405280156108455781602001602082028036833780820191505090505b509150600080600190505b6001548111610aca5760008082815260200190815260200160002060050160009054906101000a900460ff1615610ab757600080600083815260200190815260200160002090508060010160009054906101000a900473ffffffffffffffffffffffffffffffffffffffff168984815181106108cf576108ce611526565b5b602002602001019073ffffffffffffffffffffffffffffffffffffffff16908173ffffffffffffffffffffffffffffffffffffffff168152505080600201805461091890611584565b80601f016020809104026020016040519081016040528092919081815260200182805461094490611584565b80156109915780601f1061096657610100808354040283529160200191610991565b820191906000526020600020905b81548152906001019060200180831161097457829003601f168201915b50505050508884815181106109a9576109a8611526565b5b60200260200101819052508060030180546109c390611584565b80601f01602080910402602001604051908101604052809291908181526020018280546109ef90611584565b8015610a3c5780601f10610a1157610100808354040283529160200191610a3c565b820191906000526020600020905b815481529060010190602001808311610a1f57829003601f168201915b5050505050878481518110610a5457610a53611526565b5b60200260200101819052508060040154868481518110610a7757610a76611526565b5b6020026020010181815250508060000154858481518110610a9b57610a9a611526565b5b6020026020010181815250508280610ab2906115e4565b935050505b8080610ac2906115e4565b915050610850565b5050509091929394565b6000835111610b18576040517f08c379a0000000000000000000000000000000000000000000000000000000008152600401610b0f90611678565b60405180910390fd5b6000825111610b5c576040517f08c379a0000000000000000000000000000000000000000000000000000000008152600401610b53906116e4565b60405180910390fd5b60016000815480929190610b6f906115e4565b91905055506040518060c0016040528060015481526020013373ffffffffffffffffffffffffffffffffffffffff16815260200184815260200183815260200142815260200182151581525060008060015481526020019081526020016000206000820151816000015560208201518160010160006101000a81548173ffffffffffffffffffffffffffffffffffffffff021916908373ffffffffffffffffffffffffffffffffffffffff1602179055506040820151816002019081610c3591906118b0565b506060820151816003019081610c4b91906118b0565b506080820151816004015560a08201518160050160006101000a81548160ff021916908315150217905550905050600260003373ffffffffffffffffffffffffffffffffffffffff1673ffffffffffffffffffffffffffffffffffffffff16815260200190815260200160002060015490806001815401808255809150506001900390600052602060002001600090919091909150556001547f92b2fb75e99443d0001a3bd03fb45f17e7f5ec5c10214eb73a25c4636da0bd05338584604051610d17939291906119d9565b60405180910390a2505050565b6000604051905090565b600080fd5b600080fd5b6000819050919050565b610d4b81610d38565b8114610d5657600080fd5b50565b600081359050610d6881610d42565b92915050565b600060208284031215610d8457610d83610d2e565b5b6000610d9284828501610d59565b91505092915050565b600081519050919050565b600082825260208201905092915050565b6000819050602082019050919050565b600081519050919050565b600082825260208201905092915050565b60005b83811015610e01578082015181840152602081019050610de6565b60008484015250505050565b6000601f19601f8301169050919050565b6000610e2982610dc7565b610e338185610dd2565b9350610e43818560208601610de3565b610e4c81610e0d565b840191505092915050565b6000610e638383610e1e565b905092915050565b6000602082019050919050565b6000610e8382610d9b565b610e8d8185610da6565b935083602082028501610e9f85610db7565b8060005b85811015610edb5784840389528151610ebc8582610e57565b9450610ec783610e6b565b925060208a01995050600181019050610ea3565b50829750879550505050505092915050565b600081519050919050565b600082825260208201905092915050565b6000819050602082019050919050565b610f2281610d38565b82525050565b6000610f348383610f19565b60208301905092915050565b6000602082019050919050565b6000610f5882610eed565b610f628185610ef8565b9350610f6d83610f09565b8060005b83811015610f9e578151610f858882610f28565b9750610f9083610f40565b925050600181019050610f71565b5085935050505092915050565b600081519050919050565b600082825260208201905092915050565b6000819050602082019050919050565b60008115159050919050565b610fec81610fd7565b82525050565b6000610ffe8383610fe3565b60208301905092915050565b6000602082019050919050565b600061102282610fab565b61102c8185610fb6565b935061103783610fc7565b8060005b8381101561106857815161104f8882610ff2565b975061105a8361100a565b92505060018101905061103b565b5085935050505092915050565b600060a082019050818103600083015261108f8188610e78565b905081810360208301526110a38187610e78565b905081810360408301526110b78186610f4d565b905081810360608301526110cb8185610f4d565b905081810360808301526110df8184611017565b90509695505050505050565b600081519050919050565b600082825260208201905092915050565b6000819050602082019050919050565b600073ffffffffffffffffffffffffffffffffffffffff82169050919050565b600061114282611117565b9050919050565b61115281611137565b82525050565b60006111648383611149565b60208301905092915050565b6000602082019050919050565b6000611188826110eb565b61119281856110f6565b935061119d83611107565b8060005b838110156111ce5781516111b58882611158565b97506111c083611170565b9250506001810190506111a1565b5085935050505092915050565b600060a08201905081810360008301526111f5818861117d565b905081810360208301526112098187610e78565b9050818103604083015261121d8186610e78565b905081810360608301526112318185610f4d565b905081810360808301526112458184610f4d565b90509695505050505050565b600080fd5b600080fd5b7f4e487b7100000000000000000000000000000000000000000000000000000000600052604160045260246000fd5b61129382610e0d565b810181811067ffffffffffffffff821117156112b2576112b161125b565b5b80604052505050565b60006112c5610d24565b90506112d1828261128a565b919050565b600067ffffffffffffffff8211156112f1576112f061125b565b5b6112fa82610e0d565b9050602081019050919050565b82818337600083830152505050565b6000611329611324846112d6565b6112bb565b90508281526020810184848401111561134557611344611256565b5b611350848285611307565b509392505050565b600082601f83011261136d5761136c611251565b5b813561137d848260208601611316565b91505092915050565b61138f81610fd7565b811461139a57600080fd5b50565b6000813590506113ac81611386565b92915050565b6000806000606084860312156113cb576113ca610d2e565b5b600084013567ffffffffffffffff8111156113e9576113e8610d33565b5b6113f586828701611358565b935050602084013567ffffffffffffffff81111561141657611415610d33565b5b61142286828701611358565b92505060406114338682870161139d565b9150509250925092565b600082825260208201905092915050565b7f496e76616c696420706f656d2049440000000000000000000000000000000000600082015250565b6000611484600f8361143d565b915061148f8261144e565b602082019050919050565b600060208201905081810360008301526114b381611477565b9050919050565b7f4e6f742074686520617574686f72000000000000000000000000000000000000600082015250565b60006114f0600e8361143d565b91506114fb826114ba565b602082019050919050565b6000602082019050818103600083015261151f816114e3565b9050919050565b7f4e487b7100000000000000000000000000000000000000000000000000000000600052603260045260246000fd5b7f4e487b7100000000000000000000000000000000000000000000000000000000600052602260045260246000fd5b6000600282049050600182168061159c57607f821691505b6020821081036115af576115ae611555565b5b50919050565b7f4e487b7100000000000000000000000000000000000000000000000000000000600052601160045260246000fd5b60006115ef82610d38565b91507fffffffffffffffffffffffffffffffffffffffffffffffffffffffffffffffff8203611621576116206115b5565b5b600182019050919050565b7f5469746c652063616e6e6f7420626520656d7074790000000000000000000000600082015250565b600061166260158361143d565b915061166d8261162c565b602082019050919050565b6000602082019050818103600083015261169181611655565b9050919050565b7f436f6e74656e742063616e6e6f7420626520656d707479000000000000000000600082015250565b60006116ce60178361143d565b91506116d982611698565b602082019050919050565b600060208201905081810360008301526116fd816116c1565b9050919050565b60008190508160005260206000209050919050565b60006020601f8301049050919050565b600082821b905092915050565b6000600883026117667fffffffffffffffffffffffffffffffffffffffffffffffffffffffffffffffff82611729565b6117708683611729565b95508019841693508086168417925050509392505050565b6000819050919050565b60006117ad6117a86117a384610d38565b611788565b610d38565b9050919050565b6000819050919050565b6117c783611792565b6117db6117d3826117b4565b848454611736565b825550505050565b600090565b6117f06117e3565b6117fb8184846117be565b505050565b5b8181101561181f576118146000826117e8565b600181019050611801565b5050565b601f8211156118645761183581611704565b61183e84611719565b8101602085101561184d578190505b61186161185985611719565b830182611800565b50505b505050565b600082821c905092915050565b600061188760001984600802611869565b1980831691505092915050565b60006118a08383611876565b9150826002028217905092915050565b6118b982610dc7565b67ffffffffffffffff8111156118d2576118d161125b565b5b6118dc8254611584565b6118e7828285611823565b600060209050601f83116001811461191a5760008415611908578287015190505b6119128582611894565b86555061197a565b601f19841661192886611704565b60005b828110156119505784890151825560018201915060208501945060208101905061192b565b8683101561196d5784890151611969601f891682611876565b8355505b6001600288020188555050505b505050505050565b61198b81611137565b82525050565b600061199c82610dc7565b6119a6818561143d565b93506119b6818560208601610de3565b6119bf81610e0d565b840191505092915050565b6119d381610fd7565b82525050565b60006060820190506119ee6000830186611982565b8181036020830152611a008185611991565b9050611a0f60408301846119ca565b94935050505056fea2646970667358221220e4e2c419f64682ee7f6fdb45cd88a8dc56b07c92d58b6210cc09d81525e2f1fa64736f6c63430008130033",
  "linkReferences": {},
  "deployedLinkReferences": {}
}